{
  "_format": "hh-sol-artifact-1",
  "contractName": "BookShelf",
  "sourceName": "contracts/BookShelf.sol",
  "abi": [
    {
      "inputs": [],
      "stateMutability": "payable",
      "type": "constructor"
    },
    {
      "anonymous": false,
      "inputs": [
        {
          "indexed": false,
          "internalType": "address",
          "name": "buyer",
          "type": "address"
        },
        {
          "indexed": false,
          "internalType": "uint256",
          "name": "bookId",
          "type": "uint256"
        }
      ],
      "name": "BookPurchased",
      "type": "event"
    },
    {
      "inputs": [],
      "name": "author",
      "outputs": [
        {
          "internalType": "address payable",
          "name": "",
          "type": "address"
        }
      ],
      "stateMutability": "view",
      "type": "function"
    },
    {
      "inputs": [
        {
          "internalType": "uint256",
          "name": "bookId",
          "type": "uint256"
        }
      ],
      "name": "buyBook",
      "outputs": [],
      "stateMutability": "payable",
      "type": "function"
    },
    {
      "inputs": [],
      "name": "getAuthorBooks",
      "outputs": [
        {
          "components": [
            {
              "internalType": "address",
              "name": "author",
              "type": "address"
            },
            {
              "internalType": "uint256",
              "name": "bookId",
              "type": "uint256"
            },
            {
              "internalType": "uint8",
              "name": "price",
              "type": "uint8"
            },
            {
              "internalType": "bytes",
              "name": "title",
              "type": "bytes"
            },
            {
              "internalType": "bytes",
              "name": "author_name",
              "type": "bytes"
            },
            {
              "internalType": "bytes",
              "name": "published_date",
              "type": "bytes"
            },
            {
              "internalType": "bytes",
              "name": "content",
              "type": "bytes"
            },
            {
              "internalType": "enum BookShelf.BookStatus",
              "name": "status",
              "type": "uint8"
            },
            {
              "internalType": "uint256",
              "name": "purchase_counter",
              "type": "uint256"
            }
          ],
          "internalType": "struct BookShelf.BookMetadata[]",
          "name": "",
          "type": "tuple[]"
        }
      ],
      "stateMutability": "view",
      "type": "function"
    },
    {
      "inputs": [
        {
          "internalType": "address",
          "name": "user",
          "type": "address"
        },
        {
          "internalType": "uint256",
          "name": "bookId",
          "type": "uint256"
        }
      ],
      "name": "hasUserPurchasedBook",
      "outputs": [
        {
          "internalType": "bool",
          "name": "",
          "type": "bool"
        }
      ],
      "stateMutability": "view",
      "type": "function"
    },
    {
      "inputs": [
        {
          "internalType": "string",
          "name": "title_",
          "type": "string"
        },
        {
          "internalType": "string",
          "name": "content_",
          "type": "string"
        },
        {
          "internalType": "string",
          "name": "authorname_",
          "type": "string"
        },
        {
          "internalType": "string",
          "name": "date_",
          "type": "string"
        },
        {
          "internalType": "uint256",
          "name": "purchase_counter_",
          "type": "uint256"
        },
        {
          "internalType": "uint8",
          "name": "price_",
          "type": "uint8"
        },
        {
          "internalType": "enum BookShelf.BookStatus",
          "name": "bookstatus_",
          "type": "uint8"
        }
      ],
      "name": "publishBook",
      "outputs": [],
      "stateMutability": "nonpayable",
      "type": "function"
    }
  ],
  "bytecode": "0x608060405233600260006101000a81548173ffffffffffffffffffffffffffffffffffffffff021916908373ffffffffffffffffffffffffffffffffffffffff160217905550611a86806100546000396000f3fe60806040526004361061004a5760003560e01c806316d1d9411461004f5780636ee265661461007a5780639f86081414610096578063a6c3e6b9146100d3578063c8b237c2146100fe575b600080fd5b34801561005b57600080fd5b50610064610127565b6040516100719190610fe4565b60405180910390f35b610094600480360381019061008f9190611046565b6104ef565b005b3480156100a257600080fd5b506100bd60048036038101906100b8919061109f565b6108ff565b6040516100ca91906110fa565b60405180910390f35b3480156100df57600080fd5b506100e8610967565b6040516100f59190611136565b60405180910390f35b34801561010a57600080fd5b50610125600480360381019061012091906112d7565b61098d565b005b6060600080600260009054906101000a900473ffffffffffffffffffffffffffffffffffffffff1673ffffffffffffffffffffffffffffffffffffffff1673ffffffffffffffffffffffffffffffffffffffff168152602001908152602001600020805480602002602001604051908101604052809291908181526020016000905b828210156104e65783829060005260206000209060090201604051806101200160405290816000820160009054906101000a900473ffffffffffffffffffffffffffffffffffffffff1673ffffffffffffffffffffffffffffffffffffffff1673ffffffffffffffffffffffffffffffffffffffff168152602001600182015481526020016002820160009054906101000a900460ff1660ff1660ff16815260200160038201805461025a90611418565b80601f016020809104026020016040519081016040528092919081815260200182805461028690611418565b80156102d35780601f106102a8576101008083540402835291602001916102d3565b820191906000526020600020905b8154815290600101906020018083116102b657829003601f168201915b505050505081526020016004820180546102ec90611418565b80601f016020809104026020016040519081016040528092919081815260200182805461031890611418565b80156103655780601f1061033a57610100808354040283529160200191610365565b820191906000526020600020905b81548152906001019060200180831161034857829003601f168201915b5050505050815260200160058201805461037e90611418565b80601f01602080910402602001604051908101604052809291908181526020018280546103aa90611418565b80156103f75780601f106103cc576101008083540402835291602001916103f7565b820191906000526020600020905b8154815290600101906020018083116103da57829003601f168201915b5050505050815260200160068201805461041090611418565b80601f016020809104026020016040519081016040528092919081815260200182805461043c90611418565b80156104895780601f1061045e57610100808354040283529160200191610489565b820191906000526020600020905b81548152906001019060200180831161046c57829003601f168201915b505050505081526020016007820160009054906101000a900460ff1660018111156104b7576104b6610dfd565b5b60018111156104c9576104c8610dfd565b5b8152602001600882015481525050815260200190600101906101a9565b50505050905090565b6000811180156105625750600080600260009054906101000a900473ffffffffffffffffffffffffffffffffffffffff1673ffffffffffffffffffffffffffffffffffffffff1673ffffffffffffffffffffffffffffffffffffffff168152602001908152602001600020805490508111155b6105a1576040517f08c379a0000000000000000000000000000000000000000000000000000000008152600401610598906114a6565b60405180910390fd5b6000806000600260009054906101000a900473ffffffffffffffffffffffffffffffffffffffff1673ffffffffffffffffffffffffffffffffffffffff1673ffffffffffffffffffffffffffffffffffffffff16815260200190815260200160002060018361061091906114f5565b8154811061062157610620611529565b5b9060005260206000209060090201905060018081111561064457610643610dfd565b5b8160070160009054906101000a900460ff16600181111561066857610667610dfd565b5b146106a8576040517f08c379a000000000000000000000000000000000000000000000000000000000815260040161069f906115a4565b60405180910390fd5b8060020160009054906101000a900460ff1660ff163410156106ff576040517f08c379a00000000000000000000000000000000000000000000000000000000081526004016106f690611610565b60405180910390fd5b600160003373ffffffffffffffffffffffffffffffffffffffff1673ffffffffffffffffffffffffffffffffffffffff168152602001908152602001600020600083815260200190815260200160002060009054906101000a900460ff161561079d576040517f08c379a0000000000000000000000000000000000000000000000000000000008152600401610794906116a2565b60405180910390fd5b8060080160008154809291906107b2906116c2565b919050555060008160080154036107f15760008160070160006101000a81548160ff021916908360018111156107eb576107ea610dfd565b5b02179055505b60018060003373ffffffffffffffffffffffffffffffffffffffff1673ffffffffffffffffffffffffffffffffffffffff168152602001908152602001600020600084815260200190815260200160002060006101000a81548160ff021916908315150217905550600260009054906101000a900473ffffffffffffffffffffffffffffffffffffffff1673ffffffffffffffffffffffffffffffffffffffff166108fc349081150290604051600060405180830381858888f193505050501580156108c1573d6000803e3d6000fd5b507f3d5c9af7e63226b62cddcec17f8bac449894f35126513c4f14022b8c20ae161b33836040516108f3929190611709565b60405180910390a15050565b6000600160008473ffffffffffffffffffffffffffffffffffffffff1673ffffffffffffffffffffffffffffffffffffffff168152602001908152602001600020600083815260200190815260200160002060009054906101000a900460ff16905092915050565b600260009054906101000a900473ffffffffffffffffffffffffffffffffffffffff1681565b600260009054906101000a900473ffffffffffffffffffffffffffffffffffffffff1673ffffffffffffffffffffffffffffffffffffffff163373ffffffffffffffffffffffffffffffffffffffff1614610a1d576040517f08c379a0000000000000000000000000000000000000000000000000000000008152600401610a149061177e565b60405180910390fd5b60006001600080600260009054906101000a900473ffffffffffffffffffffffffffffffffffffffff1673ffffffffffffffffffffffffffffffffffffffff1673ffffffffffffffffffffffffffffffffffffffff16815260200190815260200160002080549050610a8f919061179e565b905060008403610a9e57600091505b6000604051806101200160405280600260009054906101000a900473ffffffffffffffffffffffffffffffffffffffff1673ffffffffffffffffffffffffffffffffffffffff1681526020018381526020018560ff1681526020018a8152602001888152602001878152602001898152602001846001811115610b2457610b23610dfd565b5b8152602001868152509050600080600260009054906101000a900473ffffffffffffffffffffffffffffffffffffffff1673ffffffffffffffffffffffffffffffffffffffff1673ffffffffffffffffffffffffffffffffffffffff16815260200190815260200160002081908060018154018082558091505060019003906000526020600020906009020160009091909190915060008201518160000160006101000a81548173ffffffffffffffffffffffffffffffffffffffff021916908373ffffffffffffffffffffffffffffffffffffffff1602179055506020820151816001015560408201518160020160006101000a81548160ff021916908360ff1602179055506060820151816003019081610c40919061197e565b506080820151816004019081610c56919061197e565b5060a0820151816005019081610c6c919061197e565b5060c0820151816006019081610c82919061197e565b5060e08201518160070160006101000a81548160ff02191690836001811115610cae57610cad610dfd565b5b021790555061010082015181600801555050505050505050505050565b600081519050919050565b600082825260208201905092915050565b6000819050602082019050919050565b600073ffffffffffffffffffffffffffffffffffffffff82169050919050565b6000610d2282610cf7565b9050919050565b610d3281610d17565b82525050565b6000819050919050565b610d4b81610d38565b82525050565b600060ff82169050919050565b610d6781610d51565b82525050565b600081519050919050565b600082825260208201905092915050565b60005b83811015610da7578082015181840152602081019050610d8c565b60008484015250505050565b6000601f19601f8301169050919050565b6000610dcf82610d6d565b610dd98185610d78565b9350610de9818560208601610d89565b610df281610db3565b840191505092915050565b7f4e487b7100000000000000000000000000000000000000000000000000000000600052602160045260246000fd5b60028110610e3d57610e3c610dfd565b5b50565b6000819050610e4e82610e2c565b919050565b6000610e5e82610e40565b9050919050565b610e6e81610e53565b82525050565b600061012083016000830151610e8d6000860182610d29565b506020830151610ea06020860182610d42565b506040830151610eb36040860182610d5e565b5060608301518482036060860152610ecb8282610dc4565b91505060808301518482036080860152610ee58282610dc4565b91505060a083015184820360a0860152610eff8282610dc4565b91505060c083015184820360c0860152610f198282610dc4565b91505060e0830151610f2e60e0860182610e65565b50610100830151610f43610100860182610d42565b508091505092915050565b6000610f5a8383610e74565b905092915050565b6000602082019050919050565b6000610f7a82610ccb565b610f848185610cd6565b935083602082028501610f9685610ce7565b8060005b85811015610fd25784840389528151610fb38582610f4e565b9450610fbe83610f62565b925060208a01995050600181019050610f9a565b50829750879550505050505092915050565b60006020820190508181036000830152610ffe8184610f6f565b905092915050565b6000604051905090565b600080fd5b600080fd5b61102381610d38565b811461102e57600080fd5b50565b6000813590506110408161101a565b92915050565b60006020828403121561105c5761105b611010565b5b600061106a84828501611031565b91505092915050565b61107c81610d17565b811461108757600080fd5b50565b60008135905061109981611073565b92915050565b600080604083850312156110b6576110b5611010565b5b60006110c48582860161108a565b92505060206110d585828601611031565b9150509250929050565b60008115159050919050565b6110f4816110df565b82525050565b600060208201905061110f60008301846110eb565b92915050565b600061112082610cf7565b9050919050565b61113081611115565b82525050565b600060208201905061114b6000830184611127565b92915050565b600080fd5b600080fd5b7f4e487b7100000000000000000000000000000000000000000000000000000000600052604160045260246000fd5b61119382610db3565b810181811067ffffffffffffffff821117156111b2576111b161115b565b5b80604052505050565b60006111c5611006565b90506111d1828261118a565b919050565b600067ffffffffffffffff8211156111f1576111f061115b565b5b6111fa82610db3565b9050602081019050919050565b82818337600083830152505050565b6000611229611224846111d6565b6111bb565b90508281526020810184848401111561124557611244611156565b5b611250848285611207565b509392505050565b600082601f83011261126d5761126c611151565b5b813561127d848260208601611216565b91505092915050565b61128f81610d51565b811461129a57600080fd5b50565b6000813590506112ac81611286565b92915050565b600281106112bf57600080fd5b50565b6000813590506112d1816112b2565b92915050565b600080600080600080600060e0888a0312156112f6576112f5611010565b5b600088013567ffffffffffffffff81111561131457611313611015565b5b6113208a828b01611258565b975050602088013567ffffffffffffffff81111561134157611340611015565b5b61134d8a828b01611258565b965050604088013567ffffffffffffffff81111561136e5761136d611015565b5b61137a8a828b01611258565b955050606088013567ffffffffffffffff81111561139b5761139a611015565b5b6113a78a828b01611258565b94505060806113b88a828b01611031565b93505060a06113c98a828b0161129d565b92505060c06113da8a828b016112c2565b91505092959891949750929550565b7f4e487b7100000000000000000000000000000000000000000000000000000000600052602260045260246000fd5b6000600282049050600182168061143057607f821691505b602082108103611443576114426113e9565b5b50919050565b600082825260208201905092915050565b7f496e76616c696420626f6f6b2049440000000000000000000000000000000000600082015250565b6000611490600f83611449565b915061149b8261145a565b602082019050919050565b600060208201905081810360008301526114bf81611483565b9050919050565b7f4e487b7100000000000000000000000000000000000000000000000000000000600052601160045260246000fd5b600061150082610d38565b915061150b83610d38565b9250828203905081811115611523576115226114c6565b5b92915050565b7f4e487b7100000000000000000000000000000000000000000000000000000000600052603260045260246000fd5b7f426f6f6b206973206e6f7420617661696c61626c650000000000000000000000600082015250565b600061158e601583611449565b915061159982611558565b602082019050919050565b600060208201905081810360008301526115bd81611581565b9050919050565b7f496e73756666696369656e74207061796d656e74000000000000000000000000600082015250565b60006115fa601483611449565b9150611605826115c4565b602082019050919050565b60006020820190508181036000830152611629816115ed565b9050919050565b7f596f75206861766520616c72656164792070757263686173656420746869732060008201527f626f6f6b00000000000000000000000000000000000000000000000000000000602082015250565b600061168c602483611449565b915061169782611630565b604082019050919050565b600060208201905081810360008301526116bb8161167f565b9050919050565b60006116cd82610d38565b9150600082036116e0576116df6114c6565b5b600182039050919050565b6116f481610d17565b82525050565b61170381610d38565b82525050565b600060408201905061171e60008301856116eb565b61172b60208301846116fa565b9392505050565b7f4f6e6c7920617574686f722063616e207075626c69736820626f6f6b73000000600082015250565b6000611768601d83611449565b915061177382611732565b602082019050919050565b600060208201905081810360008301526117978161175b565b9050919050565b60006117a982610d38565b91506117b483610d38565b92508282019050808211156117cc576117cb6114c6565b5b92915050565b60008190508160005260206000209050919050565b60006020601f8301049050919050565b600082821b905092915050565b6000600883026118347fffffffffffffffffffffffffffffffffffffffffffffffffffffffffffffffff826117f7565b61183e86836117f7565b95508019841693508086168417925050509392505050565b6000819050919050565b600061187b61187661187184610d38565b611856565b610d38565b9050919050565b6000819050919050565b61189583611860565b6118a96118a182611882565b848454611804565b825550505050565b600090565b6118be6118b1565b6118c981848461188c565b505050565b5b818110156118ed576118e26000826118b6565b6001810190506118cf565b5050565b601f82111561193257611903816117d2565b61190c846117e7565b8101602085101561191b578190505b61192f611927856117e7565b8301826118ce565b50505b505050565b600082821c905092915050565b600061195560001984600802611937565b1980831691505092915050565b600061196e8383611944565b9150826002028217905092915050565b61198782610d6d565b67ffffffffffffffff8111156119a05761199f61115b565b5b6119aa8254611418565b6119b58282856118f1565b600060209050601f8311600181146119e857600084156119d6578287015190505b6119e08582611962565b865550611a48565b601f1984166119f6866117d2565b60005b82811015611a1e578489015182556001820191506020850194506020810190506119f9565b86831015611a3b5784890151611a37601f891682611944565b8355505b6001600288020188555050505b50505050505056fea2646970667358221220766eaa7fb909874b48a6991003210977f7dac64b1cac2bf6792ed075e8d59c9264736f6c63430008180033",
  "linkReferences": {},
  "deployedLinkReferences": {}
}